:100000000C942A000C943F000C943F000C943F0089
:100010000C943F000C943F000C943F000C943F0064
:100020000C943F000C943F000C943F000C943F0054
:100030000C943F000C943F000C943F000C943F0044
:100040000C943F000C943F000C943F000C943F0034
:100050000C943F0011241FBECFE5D8E0DEBFCDBF1A
:1000600010E0A0E6B0E0E2E6F5E002C005900D92F7
:10007000A437B107D9F70E94AA020C94AF020C94DE
:100080000000843010F080E00895813049F0813024
:1000900028F0823039F0833031F407C06ABB03C0E6
:1000A00067BB01C064BB81E0089561BB81E0089536
:1000B000843010F080E00895813049F0813028F0DC
:1000C000823039F0833031F407C06BBB03C068BBAA
:1000D00001C065BB81E0089562BB81E00895843072
:1000E00088F4813049F0813028F0823039F0833053
:1000F00049F406C089B3089586B3089583B308957B
:1001000080B3089580E00895843008F077C06830A7
:1001100008F074C04130B1F5813099F0813030F091
:100120008230D1F0833009F06BC021C02AB381E066
:1001300090E002C0880F991F6A95E2F7282B2ABB2E
:100140005BC027B381E090E002C0880F991F6A95D9
:10015000E2F7282B27BB50C024B381E090E002C017
:10016000880F991F6A95E2F7282B24BB45C021B35D
:1001700081E090E002C0880F991F6A95E2F7282B72
:1001800021BB3AC04423D1F5813099F0813028F069
:100190008230D9F08330A1F524C02AB381E090E009
:1001A00002C0880F991F6A95E2F7809582238ABB67
:1001B00023C027B381E090E002C0880F991F6A95A1
:1001C000E2F78095822387BB17C024B381E090E0DB
:1001D00002C0880F991F6A95E2F78095822384BB3D
:1001E0000BC021B381E090E002C0880F991F6A958F
:1001F000E2F78095822381BB81E0089580E0089535
:1002000081E00895843008F077C0683008F074C049
:100210004130B1F5813099F0813030F08230D1F049
:10022000833009F06BC021C02BB381E090E002C0A5
:10023000880F991F6A95E2F7282B2BBB5BC028B368
:1002400081E090E002C0880F991F6A95E2F7282BA1
:1002500028BB50C025B381E090E002C0880F991FF1
:100260006A95E2F7282B25BB45C022B381E090E0D8
:1002700002C0880F991F6A95E2F7282B22BB3AC06B
:100280004423D1F5813099F0813028F08230D9F0C3
:100290008330A1F524C02BB381E090E002C0880F29
:1002A000991F6A95E2F7809582238BBB23C028B300
:1002B00081E090E002C0880F991F6A95E2F780956F
:1002C000822388BB17C025B381E090E002C0880F6D
:1002D000991F6A95E2F78095822385BB0BC022B3F4
:1002E00081E090E002C0880F991F6A95E2F780953F
:1002F000822382BB81E0089580E0089581E0089523
:100300008430D0F46830C0F4813049F0813028F076
:10031000823039F0833081F406C089B305C086B3DA
:1003200003C083B301C080B390E002C09595879568
:100330006A95E2F78170089580E008958430C0F5F1
:100340006830B0F5813091F0813028F08230C9F00A
:10035000833061F521C02BB381E090E002C0880FAB
:10036000991F6A95E2F728272BBB20C028B381E0AC
:1003700090E002C0880F991F6A95E2F7282728BBF2
:1003800015C025B381E090E002C0880F991F6A95DF
:10039000E2F7282725BB0AC022B381E090E002C023
:1003A000880F991F6A95E2F7282722BB81E00895FC
:1003B00080E008958130A9F0813030F0823019F169
:1003C000833009F040C02CC0413019F480916000A6
:1003D00004C04230C1F580916A006817A1F580E041
:1003E00026C0413031F480916000681761F581E0EA
:1003F0001EC0423041F580916A00681721F581E006
:100400006091600014C0413019F48091600004C014
:100410004230C9F480916A006817A9F482E007C0ED
:10042000413041F480916000681769F483E00E94D4
:1004300058000895423039F480916A00681719F421
:1004400083E00E9458000895813049F0813028F0FF
:10045000823039F0833071F409C080E003C081E05C
:1004600001C082E06FEF0E944100089583E06FEFCA
:100470000E9441000895843019F1853048F481309C
:10048000C9F0813098F08230B9F0833089F416C019
:100490008730E1F0883028F48530A1F0863041F4CF
:1004A00013C08830A9F0893019F414C08FE308957F
:1004B00080E0089586E008958BE508958FE408951F
:1004C00086E608958DE608958DE7089587E00895FE
:1004D0008FE708958FE608950F931F93CF93DF93CF
:1004E00080E00E942402C0E0D0E008EC10E080E050
:1004F0006C2F41E00E94DA0180ED97E0F80131971E
:10050000F1F70197D9F72196CA30D10584F3C0E0FD
:10051000D0E0EDCF0F931F93CF93DF9381E00E9444
:100520002402C0E0D0E008EC10E08C2F0E943B02D7
:10053000682F81E00E94580088E893E1F801319724
:10054000F1F70197D9F72196CA30D10574F3C0E0CD
:10055000D0E0EBCF0E948A0280E090E00895F8940A
:02056000FFCFCB
:100562007766D7D766B6BEE0FEF6C0F9A4B0999218
:0405720082F88090FB
:00000001FF
