:100000000C942A000C943C000C943C000C943C0092
:100010000C943C000C943C000C943C000C943C0070
:100020000C943C000C943C000C943C000C94A500F7
:100030000C943C000C943C000C943C000C943C0050
:100040000C943C000C943C000C943C000C943C0040
:100050000C943C0011241FBECFE5D8E0DEBFCDBF1D
:1000600010E0A0E6B0E001C01D92A236B107E1F7B2
:100070000E94DF000C94E8000C940000DF93CF9303
:10008000CDB7DEB7AFE5B0E0EFE5F0E080818068A6
:100090008C93CF91DF910895DF93CF93CDB7DEB7E7
:1000A000A3E5B0E0E3E5F0E08081887F8C93A3E5F1
:1000B000B0E0E3E5F0E0808183608C93CF91DF9145
:1000C0000895DF93CF9300D000D00F92CDB7DEB765
:1000D0009B838A831982A9E5B0E0E9E5F0E080819D
:1000E00081608C938C9189830F900F900F900F906B
:1000F0000F90CF91DF910895DF93CF9300D0CDB7CC
:10010000DEB79A838983A2E5B0E0E2E5F0E0808182
:1001100083608C930F900F90CF91DF910895DF93C0
:10012000CF9300D0CDB7DEB79A83898389819A8136
:10013000009731F089819A819093610080936000EB
:100140000F900F90CF91DF9108951F920F920FB6ED
:100150000F9211242F933F934F935F936F937F934D
:100160008F939F93AF93BF93EF93FF93DF93CF93BF
:10017000CDB7DEB78091600090916100009729F0C3
:10018000E0916000F09161000995A8E5B0E0E8E534
:10019000F0E0808181608C93CF91DF91FF91EF91AE
:1001A000BF91AF919F918F917F916F915F914F918F
:1001B0003F912F910F900FBE0F901F901895DF93D6
:1001C000CF93CDB7DEB780E090E0CF91DF91089577
:0401D000F894FFCFD1
:00000001FF
