:100000000C942A000C944B020C947A020C94A902D2
:100010000C943C000C943C000C943C000C943C0070
:100020000C943C000C943C000C943C000C943C0060
:100030000C943C000C943C000C943C000C943C0050
:100040000C943C000C943C000C943C000C943C0040
:100050000C943C0011241FBECFE5D8E0DEBFCDBF1D
:1000600010E0A0E6B0E001C01D92A636B107E1F7AE
:100070000E94DC020C9431030C940000843010F0D8
:1000800080E00895813049F0813028F0823039F0E5
:10009000833031F407C06ABB03C067BB01C064BBD7
:1000A00081E0089561BB81E00895843010F080E024
:1000B0000895813049F0813028F0823039F0833062
:1000C00031F407C06BBB03C068BB01C065BB81E0F6
:1000D000089562BB81E00895843088F4813049F04E
:1000E000813028F0823039F0833049F406C089B37A
:1000F000089586B3089583B3089580B3089580E08A
:100100000895843008F077C0683008F074C041303A
:10011000B1F5813099F0813030F08230D1F0833008
:1001200009F06BC021C02AB381E090E002C0880FC3
:10013000991F6A95E2F7282B2ABB5BC027B381E0A1
:1001400090E002C0880F991F6A95E2F7282B27BB21
:1001500050C024B381E090E002C0880F991F6A95D7
:10016000E2F7282B24BB45C021B381E090E002C018
:10017000880F991F6A95E2F7282B21BB3AC04423C8
:10018000D1F5813099F0813028F08230D9F0833078
:10019000A1F524C02AB381E090E002C0880F991F26
:1001A0006A95E2F7809582238ABB23C027B381E05A
:1001B00090E002C0880F991F6A95E2F7809582232C
:1001C00087BB17C024B381E090E002C0880F991F5D
:1001D0006A95E2F78095822384BB0BC021B381E04E
:1001E00090E002C0880F991F6A95E2F780958223FC
:1001F00081BB81E0089580E0089581E00895843016
:1002000008F077C0683008F074C04130B1F5813033
:1002100099F0813030F08230D1F0833009F06BC03A
:1002200021C02BB381E090E002C0880F991F6A952E
:10023000E2F7282B2BBB5BC028B381E090E002C023
:10024000880F991F6A95E2F7282B28BB50C025B369
:1002500081E090E002C0880F991F6A95E2F7282B91
:1002600025BB45C022B381E090E002C0880F991FF2
:100270006A95E2F7282B22BB3AC04423D1F581309E
:1002800099F0813028F08230D9F08330A1F524C074
:100290002BB381E090E002C0880F991F6A95E2F7C6
:1002A000809582238BBB23C028B381E090E002C0FD
:1002B000880F991F6A95E2F78095822388BB17C043
:1002C00025B381E090E002C0880F991F6A95E2F79C
:1002D0008095822385BB0BC022B381E090E002C0F1
:1002E000880F991F6A95E2F78095822382BB81E08F
:1002F000089580E0089581E008958430D0F4683056
:10030000C0F4813049F0813028F0823039F08330F8
:1003100081F406C089B305C086B303C083B301C0AE
:1003200080B390E002C0959587956A95E2F7817059
:10033000089580E008958430C0F56830B0F58130CC
:1003400091F0813028F08230C9F0833061F521C00E
:100350002BB381E090E002C0880F991F6A95E2F705
:1003600028272BBB20C028B381E090E002C0880F73
:10037000991F6A95E2F7282728BB15C025B381E0AD
:1003800090E002C0880F991F6A95E2F7282725BBE5
:100390000AC022B381E090E002C0880F991F6A95DD
:1003A000E2F7282722BB81E0089580E0089585B711
:1003B000816085BF85B78D7F85BF85B78B7F85BF02
:1003C00085B7886085BF84B78F7B84BF08958330ED
:1003D00010F080E00895813041F0813018F08230D3
:1003E00039F408C08BB7806402C08BB780688BBFBC
:1003F00081E008958BB780628BBF81E008958330E0
:1004000010F080E00895813041F0813018F08230A2
:1004100039F408C08BB78F7B02C08BB78F778BBF47
:1004200081E008958BB78F7D8BBF81E00895833085
:1004300010F080E00895813041F0813018F0823072
:1004400039F408C08AB7806402C08AB780688ABF5E
:1004500081E008958AB780628ABF81E0089500979D
:1004600011F480E00895613051F0613018F062308D
:1004700051F40BC0909361008093600004C090938E
:1004800063008093620081E00895909365008093FB
:10049000640081E008951F920F920FB60F9211240D
:1004A0002F933F934F935F936F937F938F939F937C
:1004B000AF93BF93EF93FF93E0916000F0916100E1
:1004C000309711F480E005C009958AB780648ABF2F
:1004D00081E0FF91EF91BF91AF919F918F917F91BB
:1004E0006F915F914F913F912F910F900FBE0F90A1
:1004F0001F9018951F920F920FB60F9211242F93F1
:100500003F934F935F936F937F938F939F93AF939B
:10051000BF93EF93FF93E0916200F09163003097F7
:1005200011F480E005C009958AB780688ABF81E030
:10053000FF91EF91BF91AF919F918F917F916F91BB
:100540005F914F913F912F910F900FBE0F901F9091
:1005500018951F920F920FB60F9211242F933F936D
:100560004F935F936F937F938F939F93AF93BF93BB
:10057000EF93FF93E0916400F0916500309711F4E0
:1005800080E005C009958AB780628ABF81E0FF914B
:10059000EF91BF91AF919F918F917F916F915F91FB
:1005A0004F913F912F910F900FBE0F901F90189574
:1005B0008FB780688FBF0895CF93DF9383E062E0A9
:1005C00040E00E94810083E062E041E00E94FF0081
:1005D00082E065E041E00E94810082E061E041E06C
:1005E0000E94810082E063E041E00E9481000E945D
:1005F000D70180E00E94E70188E293E060E00E947A
:100600002F020E94D802C8ECD0E082E065E041E011
:100610000E94FF0088E893E1FE013197F1F701970E
:10062000D9F782E065E040E00E94FF0088E893E1AE
:10063000FE013197F1F70197D9F7E7CF81E062E04A
:100640000E949B01089583E063E00E949B0108954E
:1006500082E061E00E949B0182E063E00E949B01D6
:060660000895F894FFCF9D
:00000001FF
