:100000000C942A000C9434000C9434000C943400AA
:100010000C9434000C9434000C9434000C94340090
:100020000C9434000C9434000C9434000C94340080
:100030000C9434000C9434000C9434000C94340070
:100040000C9434000C9434000C9434000C94340060
:100050000C94340011241FBECFE5D8E0DEBFCDBF25
:100060000E94AB010C94D4010C940000843010F079
:1000700080E00895813049F0813028F0823039F0F5
:10008000833031F407C06ABB03C067BB01C064BBE7
:1000900081E0089561BB81E00895843010F080E034
:1000A0000895813049F0813028F0823039F0833072
:1000B00031F407C06BBB03C068BB01C065BB81E006
:1000C000089562BB81E00895843088F4813049F05E
:1000D000813028F0823039F0833049F406C089B38A
:1000E000089586B3089583B3089580B3089580E09A
:1000F0000895843008F077C0683008F074C04F3F2E
:10010000B1F5813099F0813030F08230D1F0833018
:1001100009F06BC021C02AB381E090E002C0880FD3
:10012000991F6A95E2F7282B2ABB5BC027B381E0B1
:1001300090E002C0880F991F6A95E2F7282B27BB31
:1001400050C024B381E090E002C0880F991F6A95E7
:10015000E2F7282B24BB45C021B381E090E002C028
:10016000880F991F6A95E2F7282B21BB3AC04423D8
:10017000D1F5813099F0813028F08230D9F0833088
:10018000A1F524C02AB381E090E002C0880F991F36
:100190006A95E2F7809582238ABB23C027B381E06A
:1001A00090E002C0880F991F6A95E2F7809582233C
:1001B00087BB17C024B381E090E002C0880F991F6D
:1001C0006A95E2F78095822384BB0BC021B381E05E
:1001D00090E002C0880F991F6A95E2F7809582230C
:1001E00081BB81E0089580E0089581E00895843026
:1001F00008F077C0683008F074C04130B1F5813044
:1002000099F0813030F08230D1F0833009F06BC04A
:1002100021C02BB381E090E002C0880F991F6A953E
:10022000E2F7282B2BBB5BC028B381E090E002C033
:10023000880F991F6A95E2F7282B28BB50C025B379
:1002400081E090E002C0880F991F6A95E2F7282BA1
:1002500025BB45C022B381E090E002C0880F991F02
:100260006A95E2F7282B22BB3AC04423D1F58130AE
:1002700099F0813028F08230D9F08330A1F524C084
:100280002BB381E090E002C0880F991F6A95E2F7D6
:10029000809582238BBB23C028B381E090E002C00D
:1002A000880F991F6A95E2F78095822388BB17C053
:1002B00025B381E090E002C0880F991F6A95E2F7AC
:1002C0008095822385BB0BC022B381E090E002C001
:1002D000880F991F6A95E2F78095822382BB81E09F
:1002E000089580E0089581E008958430D0F4683066
:1002F000C0F4813049F0813028F0823039F0833009
:1003000081F406C089B305C086B303C083B301C0BE
:1003100080B390E002C0959587956A95E2F7817069
:10032000089580E008958430A0F4683090F481301E
:1003300049F0813028F0823039F0833041F406C032
:100340008BB305C088B303C085B301C082B381E01D
:10035000089580E008950F931F93CF93DF9382E079
:1003600060E04FEF0E947900C0E0D0E008EC10E0C0
:1003700082E060E041E00E94F70088EE93E0F8013F
:100380003197F1F70197D9F782E060E040E00E94F1
:10039000F7002196CA30D10559F780E090E0DF914F
:0C03A000CF911F910F910895F894FFCFAA
:00000001FF
