:100000000C942A000C943C000C943C000C943C0092
:100010000C943C000C943C000C943C000C943C0070
:100020000C943C000C943C000C943C000C943C0060
:100030000C943C000C94E2050C9415060C944806B4
:100040000C943C000C943C000C943C000C943C0040
:100050000C943C0011241FBECFE5D8E0DEBFCDBF1D
:1000600010E0A0E6B0E001C01D92A636B107E1F7AE
:100070000E947B060C94C7060C940000DF93CF937C
:1000800000D000D00F92CDB7DEB78A836B8381E0BA
:1000900089838A81843098F58A81282F30E03D83D6
:1000A0002C838C819D8181309105D1F02C813D8103
:1000B000223031052CF48C819D81009761F020C0A5
:1000C0002C813D812230310581F08C819D818330EE
:1000D000910581F015C0EAE3F0E08B81808310C0C8
:1000E000E7E3F0E08B8180830BC0E4E3F0E08B81F9
:1000F000808306C0E1E3F0E08B81808301C0198238
:1001000089810F900F900F900F900F90CF91DF91FA
:100110000895DF93CF9300D000D00F92CDB7DEB714
:100120008A836B8381E089838A81843098F58A8110
:10013000282F30E03D832C838C819D818130910577
:10014000D1F02C813D81223031052CF48C819D81B0
:10015000009761F020C02C813D812230310581F073
:100160008C819D818330910581F015C0EBE3F0E037
:100170008B81808310C0E8E3F0E08B8180830BC02B
:10018000E5E3F0E08B81808306C0E2E3F0E08B8161
:10019000808301C0198289810F900F900F900F907A
:1001A0000F90CF91DF910895DF93CF9300D000D0CF
:1001B000CDB7DEB78A8319828A81843090F58A812F
:1001C000282F30E03C832B838B819C8181309105EB
:1001D000D1F02B813C81223031052CF48B819C8124
:1001E000009761F01EC02B813C812230310581F0E7
:1001F0008B819C818330910581F013C0E9E3F0E0AD
:10020000808189830EC0E6E3F0E08081898309C0A4
:10021000E3E3F0E08081898304C0E0E3F0E08081E3
:10022000898389810F900F900F900F90CF91DF916C
:100230000895DF93CF93CDB7DEB728970FB6F89424
:10024000DEBF0FBECDBF8A836B834C8381E0898381
:100250008A81843008F0F1C08B81883008F0EDC0CD
:100260008C81813009F06FC08A81282F30E0388777
:100270002F838F8198858130910549F12F813885B1
:10028000223031052CF48F819885009761F0D6C01B
:100290002F8138852230310571F18F819885833027
:1002A0009105E9F1CBC0AAE3B0E0EAE3F0E0808198
:1002B000482F8B81282F30E081E090E0022E02C091
:1002C000880F991F0A94E2F7842B8C93B7C0A7E399
:1002D000B0E0E7E3F0E08081482F8B81282F30E009
:1002E00081E090E0022E02C0880F991F0A94E2F785
:1002F000842B8C93A3C0A4E3B0E0E4E3F0E080811E
:10030000482F8B81282F30E081E090E0022E02C040
:10031000880F991F0A94E2F7842B8C938FC0A1E376
:10032000B0E0E1E3F0E08081482F8B81282F30E0BE
:1003300081E090E0022E02C0880F991F0A94E2F734
:10034000842B8C937BC08C81882309F074C08A81B4
:10035000282F30E03E832D838D819E818130910551
:1003600059F12D813E81223031052CF48D819E8101
:10037000009769F063C02D813E812230310589F1FB
:100380008D819E818330910509F440C057C0AAE356
:10039000B0E0EAE3F0E08081482F8B81282F30E045
:1003A00081E090E0022E02C0880F991F0A94E2F7C4
:1003B000809584238C9342C0A7E3B0E0E7E3F0E0AC
:1003C0008081482F8B81282F30E081E090E0022E41
:1003D00002C0880F991F0A94E2F7809584238C93BA
:1003E0002DC0A4E3B0E0E4E3F0E08081482F8B81EE
:1003F000282F30E081E090E0022E02C0880F991F84
:100400000A94E2F7809584238C9318C0A1E3B0E0AE
:10041000E1E3F0E08081482F8B81282F30E081E0FC
:1004200090E0022E02C0880F991F0A94E2F780958F
:1004300084238C9303C0198201C019828981289674
:100440000FB6F894DEBF0FBECDBFCF91DF910895F8
:10045000DF93CF93CDB7DEB728970FB6F894DEBF02
:100460000FBECDBF8A836B834C8381E089838A81F1
:10047000843008F0F1C08B81883008F0EDC08C81A9
:10048000813009F06FC08A81282F30E038872F83B0
:100490008F8198858130910549F12F8138852230EF
:1004A00031052CF48F819885009761F0D6C02F819B
:1004B00038852230310571F18F819885833091051F
:1004C000E9F1CBC0ABE3B0E0EBE3F0E08081482F93
:1004D0008B81282F30E081E090E0022E02C0880F4F
:1004E000991F0A94E2F7842B8C93B7C0A8E3B0E07D
:1004F000E8E3F0E08081482F8B81282F30E081E015
:1005000090E0022E02C0880F991F0A94E2F7842B14
:100510008C93A3C0A5E3B0E0E5E3F0E08081482F31
:100520008B81282F30E081E090E0022E02C0880FFE
:10053000991F0A94E2F7842B8C938FC0A2E3B0E05A
:10054000E2E3F0E08081482F8B81282F30E081E0CA
:1005500090E0022E02C0880F991F0A94E2F7842BC4
:100560008C937BC08C81882309F074C08A81282FEA
:1005700030E03E832D838D819E818130910559F13C
:100580002D813E81223031052CF48D819E81009792
:1005900069F063C02D813E812230310589F18D8162
:1005A0009E818330910509F440C057C0ABE3B0E0B1
:1005B000EBE3F0E08081482F8B81282F30E081E051
:1005C00090E0022E02C0880F991F0A94E2F78095EE
:1005D00084238C9342C0A8E3B0E0E8E3F0E080819C
:1005E000482F8B81282F30E081E090E0022E02C05E
:1005F000880F991F0A94E2F7809584238C932DC06D
:10060000A5E3B0E0E5E3F0E08081482F8B81282F5F
:1006100030E081E090E0022E02C0880F991F0A941A
:10062000E2F7809584238C9318C0A2E3B0E0E2E364
:10063000F0E08081482F8B81282F30E081E090E02E
:10064000022E02C0880F991F0A94E2F78095842336
:100650008C9303C0198201C01982898128960FB634
:10066000F894DEBF0FBECDBFCF91DF910895DF9329
:10067000CF9300D000D00F92CDB7DEB78A836B83C3
:1006800019828A81843008F07BC08B81883008F021
:1006900077C08A81282F30E03D832C838C819D8117
:1006A0008130910561F12C813D81223031052CF49E
:1006B0008C819D81009769F063C02C813D8122303F
:1006C000310599F18C819D818330910509F443C0F6
:1006D00057C0A9E3B0E0E9E3F0E08081482F8B81C7
:1006E000282F30E081E090E0022E02C0880F991F91
:1006F0000A94E2F784238C938C91898341C0A6E30A
:10070000B0E0E6E3F0E08081482F8B81282F30E0D5
:1007100081E090E0022E02C0880F991F0A94E2F750
:1007200084238C938C9189832BC0A3E3B0E0E3E313
:10073000F0E08081482F8B81282F30E081E090E02D
:10074000022E02C0880F991F0A94E2F784238C932B
:100750008C91898315C0A0E3B0E0E0E3F0E08081F4
:10076000482F8B81282F30E081E090E0022E02C0DC
:10077000880F991F0A94E2F784238C938C918983C4
:1007800089810F900F900F900F900F90CF91DF9174
:100790000895DF93CF9300D000D00F92CDB7DEB78E
:1007A0008A836B8381E089838A81843008F073C0F7
:1007B0008B81883008F06FC08A81282F30E03D831C
:1007C0002C838C819D818130910549F12C813D8163
:1007D000223031052CF48C819D81009761F05CC042
:1007E0002C813D812230310571F18C819D818330D6
:1007F0009105E9F151C0ABE3B0E0EBE3F0E08081BB
:10080000482F8B81282F30E081E090E0022E02C03B
:10081000880F991F0A94E2F784278C933DC0A8E3C0
:10082000B0E0E8E3F0E08081482F8B81282F30E0B2
:1008300081E090E0022E02C0880F991F0A94E2F72F
:1008400084278C9329C0A5E3B0E0E5E3F0E0808144
:10085000482F8B81282F30E081E090E0022E02C0EB
:10086000880F991F0A94E2F784278C9315C0A2E39E
:10087000B0E0E2E3F0E08081482F8B81282F30E068
:1008800081E090E0022E02C0880F991F0A94E2F7DF
:1008900084278C9301C0198289810F900F900F904B
:1008A0000F900F90CF91DF910895DF93CF930F9228
:1008B000CDB7DEB71982E9E2F0E083E390E09183FF
:1008C0008083898180688983AAE2B0E0EAE2F0E06F
:1008D00080818B7F8C93898182608983898182600A
:1008E0008983AAE2B0E0EAE2F0E0808180618C9343
:1008F000AAE2B0E0EAE2F0E0808188608C9389812E
:10090000877F898389818F7E898389818F7D898390
:1009100089818F7B898389818E7F8983E0E4F0E000
:10092000898180830F90CF91DF910895DF93CF93DA
:100930000F92CDB7DEB78983ABE2B0E0EBE2F0E037
:10094000808180728C938C918823B1F3ECE2F0E08B
:10095000898180830F90CF91DF910895DF93CF93AA
:10096000CDB7DEB7ABE2B0E0EBE2F0E080818078BB
:100970008C938C918823B1F3ECE2F0E08081CF91ED
:10098000DF910895DF93CF93CDB7DEB7ECE2F0E0CF
:100990008081CF91DF910895DF93CF9300D0CDB7C1
:1009A000DEB79A8389830AC0E981FA8180810E9437
:1009B000960489819A8101969A838983E981FA81D3
:1009C0008081882389F70F900F90CF91DF91089550
:1009D0000F931F93DF93CF93CDB7DEB727970FB653
:1009E000F894DEBF0FBECDBF9D838C837F836E8363
:1009F0001B821A82198225C02C813D8189819A81AE
:100A0000F901E80FF91F80818A3059F42C813D816A
:100A100089819A81F901E80FF91F108281E08B83A7
:100A20001AC02C813D8189819A818901080F191F83
:100A30000E94AE04F801808389819A8101969A838D
:100A400089838E819F819C012150304089819A81C8
:100A50008217930788F28B81882359F48E819F81B6
:100A60009C01215030408C819D81FC01E20FF31FDD
:100A7000108227960FB6F894DEBF0FBECDBFCF9180
:100A8000DF911F910F910895DF93CF93CDB7DEB71C
:100A9000AAE2B0E0EAE2F0E0808180688C93AAE20A
:100AA000B0E0EAE2F0E0808180648C93AAE2B0E0FA
:100AB000EAE2F0E0808180628C93CF91DF9108952B
:100AC000DF93CF93CDB7DEB7AAE2B0E0EAE2F0E081
:100AD00080818F778C93AAE2B0E0EAE2F0E0808137
:100AE0008F7B8C93AAE2B0E0EAE2F0E080818F7D18
:100AF0008C93CF91DF910895DF93CF9300D000D0F6
:100B0000CDB7DEB79C838B838B819C818295929538
:100B1000907F9827807F98279C0140E050E080E0FC
:100B200092E1AAE7B0E0BC01CD010E948A06DA0199
:100B3000C90101979A838983E9E2F0E08981882FCE
:100B400090E091838083E0E4F0E08981882F90E059
:100B5000892F990F990B80830F900F900F900F9012
:100B6000CF91DF910895DF93CF9300D000D00F9203
:100B7000CDB7DEB789837B836A838981282F30E0F4
:100B80003D832C838C819D818130910531F02C81B6
:100B90003D812230310541F00DC08A819B819093C7
:100BA00061008093600006C08A819B8190936300FE
:100BB000809362000F900F900F900F900F90CF9145
:100BC000DF9108951F920F920FB60F9211242F9369
:100BD0003F934F935F936F937F938F939F93AF93C5
:100BE000BF93EF93FF93DF93CF93CDB7DEB78091A1
:100BF000620090916300009729F0E0916200F0910B
:100C000063000995CF91DF91FF91EF91BF91AF9173
:100C10009F918F917F916F915F914F913F912F9114
:100C20000F900FBE0F901F9018951F920F920FB646
:100C30000F9211242F933F934F935F936F937F9362
:100C40008F939F93AF93BF93EF93FF93DF93CF93D4
:100C5000CDB7DEB78091600090916100009729F0D8
:100C6000E0916400F09165000995CF91DF91FF91CB
:100C7000EF91BF91AF919F918F917F916F915F9114
:100C80004F913F912F910F900FBE0F901F9018958D
:100C90001F920F920FB60F9211242F933F934F93F1
:100CA0005F936F937F938F939F93AF93BF93EF93D4
:100CB000FF93DF93CF93CDB7DEB780916000909123
:100CC0006100009729F0E0916000F09161000995C2
:100CD000CF91DF91FF91EF91BF91AF919F918F9154
:100CE0007F916F915F914F913F912F910F900FBE28
:100CF0000F901F901895DF93CF930F92CDB7DEB76B
:100D000019820E9455040E94AE04898389810E9441
:100D10009604F9CF97FB092E05260ED057FD04D077
:100D200014D00AD0001C38F4509540953095219588
:100D30003F4F4F4F5F4F0895F6F790958095709510
:100D400061957F4F8F4F9F4F0895A1E21A2EAA1BE6
:100D5000BB1BFD010DC0AA1FBB1FEE1FFF1FA2176B
:100D6000B307E407F50720F0A21BB30BE40BF50B68
:100D7000661F771F881F991F1A9469F760957095F1
:100D8000809590959B01AC01BD01CF010895F89429
:020D9000FFCF93
:00000001FF
